:0200000280007C
:10000000502607205D090800590908005909080011
:1000100059090800590908005909080000000000A2
:100020000000000000000000000000005909080066
:100030005909080000000000590908005909080082
:100040005909080059090800590908005909080008
:1000500059090800590908005909080059090800F8
:10006000590908005909080000000000CD070800E0
:10007000E1070800F5070800090808000000000073
:100080000000000059090800590908005909080032
:1000900059090800590908005909080059090800B8
:1000A0005909080000000000590908005909080012
:1000B0005909080059090800B10208005909080047
:1000C0005909080059090800590908005909080088
:1000D0005909080059090800590908005909080078
:1000E0005909080059090800590908005909080068
:1000F0005909080010B5054C237833B9044B13B1E6
:100100000448AFF300800123237010BD9C05072035
:1001100000000000480D08000C4B43B10C4810B51E
:100120000C49AFF300800C48036823B910BD0A489E
:10013000036833B97047094B002BF7D0BDE8104076
:100140001847064B002BF5D0184700BF00000000F1
:10015000480D0800A0050720480D08000000000019
:1001600001230360704729B9436823F010034360FB
:1001700000207047436843F010034360F8E70162D2
:1001800070474368012901D90120704723F498136F
:1001900043EA014141600020704710B4446824F0F4
:1001A0007C5424F47F44090289B221434AB921F4E2
:1001B00000111B0603F07C530B434360002010BC6E
:1001C000704741F40011F4E7012901D9012070477B
:1001D000012303FA01F101610020704770B584B07A
:1001E0001E201F4DA8471F4C009402AB03AA2146B6
:1001F00040F291601C4EB0471C4E029A42F480427D
:10020000002130461A4B9847039AB4FBF2F4194A7E
:10021000A2FB0432A41A02EB5402920A00213046D7
:10022000154B98474FF08042144B1A601022002162
:100230003046134B984700213046124B98470B200D
:10024000A8470C20A8470D20A8470E20A8470E4B12
:100250004FF080621A61C3F8A02004B070BD00BFE7
:100260000509080000BD01053B03080000400840E7
:10027000ED02080085FAE3372303080000E100E0FF
:100280002B0308000B03080000100E40064A1378E9
:100290000133DBB2137003F00F0313701278034BBA
:1002A00053F82200704700BFB80507202C01072033
:1002B00038B5084C4FF08065256300210648074B90
:1002C0009847074B984701460648074B9847656390
:1002D00038BD00BF00100E40004008403303080046
:1002E0008D02080000800C407F01080010B48901D5
:1002F0004318022444504FF0FF319962196A5A6042
:1003000010BC7047C0F8C4107047890105234350E2
:100310007047890102234350704700EB811108693F
:10032000704700EB8111CA61704700EB81114A628E
:10033000704700EB8111086A7047F0B486B0022460
:1003400001940824029420240394802404940A9C99
:10035000E40B0594B0EB510F14D84C0CA04217D20B
:10036000012501AF57F82540B1FBF4F4260C844277
:100370000AD386420DD90135052DF3D1002006B0F0
:10038000F0BC70470020FAE70020F8E70120F6E70C
:1003900000252AB106A901EB850151F8141C116052
:1003A000002BF3D01D600120E9E7000038B52620BE
:1003B0000C4B98470C4C20460C4B9847002120468C
:1003C0000B4B98470023012211462046094DA847B0
:1003D00001212046084B984701212046074B9847AA
:1003E00038BD00BF0509080000800C40610108000D
:1003F000670108009B01080083010800C90108008B
:10040000034A136843F0254343F001031360704728
:10041000501A0E4010B51B20084B9847084C00227C
:1004200011462046074B984700212046064B984727
:1004300000212046054B984710BD00BF0509080064
:1004400000000840ED02080005030800130308003F
:10045000F8B5054600210948094B98472A2404FBB2
:1004600005F4064F0026074D31463846A847A042FE
:10047000FAD300210148044B9847F8BD000008401A
:100480000B0308001B0308001303080010B50E48F7
:100490000E4B98473E2100200D4B98470D4CA0472E
:1004A0000028FCD00C4B98470C4A0D4B9A620D4C1F
:1004B000A0470028FCD010200B4B98470B4B9847C7
:1004C0000148024B984710BD00BD0105A50007205B
:1004D00081080800D5080800E5080800013F0D2044
:1004E00000060E40F50808001D080800F509080080
:1004F00010B54FF40042174B5A600B20164CA04722
:100500000C20A0470D20A0470E20A0474FF06051BF
:100510003B20124CA0474FF060515520A0474FF0B0
:1005200060515620A0470E496820A0470D495C2025
:10053000A0474FF000624FF440710B480B4B9847B7
:100540004FF000612B20A0474FF000612A20A04708
:1005500010BD00BF501A0E40050908001106080022
:100560007900002801000028000E0E40E106080076
:100570004264B1F1805F16D00BD849B1B1F1006F80
:1005800005D1036F016F0B4023EA0203036742604A
:100590007047B1F1405FFBD0B1F1605FF8D0B1F1CD
:1005A000205FF4D17047036F13430367EFE74164A3
:1005B00012F0010F14BF4166016612F00A0F14BF5A
:1005C0000162416212F0020F07D112F0080F18BF4A
:1005D000C0F88410416101607047C0F88010F9E7ED
:1005E00010B4019C416444B9016643B1016542B94C
:1005F00041630161016010BC70474166F5E74165E8
:10060000F5E70163F5E7C06C7047806C7047000048
:1006100070B582B00D46430903F5001303F207736A
:100620005C0201F0F043B3F1205F31D016D8B3F192
:10063000006F1BD0B3F1805F16D100F01F000126C0
:10064000864032464FF080512046224B984715F0A5
:10065000010F14BF66662666012017E0B3F1405F04
:1006600021D0B3F1605F1ED000200FE000F01F002A
:100670000126864032464FF000612046154B9847D0
:1006800015F0010F14BF66662666012002B070BD2A
:1006900000F01F0101262A4606FA01F120460E4B02
:1006A00098473046F2E705F0605200F01F0101263E
:1006B00005EA06030093C5F38003B2F1605F14BF3F
:1006C0000022012206FA01F12046044CA0473046E0
:1006D000DCE700BF71050800AF050800E105080070
:1006E00070B582B005460E46144602F0F043B3F1F1
:1006F000205F27D011D8B3F1006F16D0B3F1805F1F
:1007000011D10A464FF08051194B984714F0010F50
:1007100014BF6E662E66012012E0B3F1405F15D063
:10072000B3F1605F12D000200AE00A464FF000618A
:100730000F4B984714F0010F14BF6E662E66012010
:1007400002B070BD0B4B98470120F9E704F06052EE
:1007500004F001030093C4F38003B2F1605F14BF9F
:100760000022012231462846034CA0470120E7E73A
:1007700071050800AF050800E10508002DE9F0410A
:10078000044688460E4B9847054620460D4B984731
:10079000054013D00C4C04F1600603E0B4420DD0C8
:1007A00010345DB120684045F8D161682942F5D028
:1007B000E3689847636825EA0305EFE7BDE8F08141
:1007C000070608000B060800BC05072008B50B212A
:1007D0000148024B984708BD000E0E407D070800F7
:1007E00008B50C210148024B984708BD00100E4087
:1007F0007D07080008B50D210148024B984708BD48
:1008000000120E407D07080008B50E210148024B7A
:10081000984708BD00140E407D070800174A136B67
:1008200023F0700318431063936E13F0080F0AD17E
:100830004FF4006311498A6E12F0080F03D1013B97
:10084000F9D1012070470D4A136B23F0030343F0E5
:1008500002031363936E13F0080F0AD14FF4006381
:1008600006498A6E12F0080F05D1013BF9D101202B
:100870007047002070470020704700BF00060E4000
:10088000C8B9114A136A090289B223F45C1323F030
:10089000030343F45C1343F001030B431362936EB1
:1008A00013F0010FFBD0084A136A43F09B7343F423
:1008B00080331362704704490B6A044A1A40044BA0
:1008C00013430B62704700BF00060E40FCFFC8FEDA
:1008D00002003701024B986E00F48030704700BF71
:1008E00000060E404FF00052014B9A62704700BF65
:1008F00000060E40024B986E00F00200704700BFE9
:1009000000060E402C281ED81F280CD8114B9A69BF
:1009100001238340934318D0012303FA00F00D4BC9
:1009200018610020704720380A4BD3F808210123B2
:10093000834093430BD0012303FA00F0054BC3F827
:100940000001002070470120704700207047002000
:10095000704700BF00060E40FEE7000008B51C4BC4
:100960001C4A9A4210D01C4B194A9A420CD2013BA5
:100970009B1A23F0030304331344164951F8040B64
:1009800042F8040B9A42F9D1144B154A9A420AD202
:10099000013B9B1A23F0030304331344002142F864
:1009A000041B9342FBD10F4B23F0604222F07F02E5
:1009B0000D498A6003F16043B3F5801F03D28B6851
:1009C00043F000538B60094B9847094B9847FEE76B
:1009D00000000720480D08009C050720500607204E
:1009E0009C0507200000080000ED00E0B10B0800A6
:1009F0004D0B08003D4B1B6B03F00303032B0ED87C
:100A0000DFE803F0021C3838394B5B6913F0800FC4
:100A100014BF4FF400424FF4FA42364B1A60334B86
:100A20001B6B03F07003702B57D0304B1A6B31499E
:100A3000C2F302120B68D3400B6070472B4B1B6A4A
:100A400013F0807F03D02C4A2A4B1A60E7E72B4A29
:100A5000284B1A60254B1B6A03F07003102B05D03E
:100A6000202BDCD1244A234B1A60D8E7244A214B9F
:100A70001A60D4E71D4B1B6A13F0807F0CD01E4A0E
:100A80001C4B1A60194B1B6B03F00303022B16D08F
:100A90001C4A184B1A60C2E7184A164B1A60134BCF
:100AA0001B6A03F07003102B05D0202BEAD1124AE9
:100AB000104B1A60E6E7124A0E4B1A60E2E70B4A47
:100AC000916A926A0B48C1F30A41036801FB033340
:100AD000D2B2B3FBF2F30360A1E7064A13680A49F6
:100AE000A1FB03135B081360704700BF00060E40B4
:100AF000101A0E406C010720001BB70000093D00D2
:100B000000127A00001C4E0EABAAAAAA022900D03D
:100B100070470D280CD01628FAD10B4A136843F001
:100B200080631360103A136843F080631360EFE74B
:100B3000054A136843F000631360103A136843F0EA
:100B400000631360704700BF10100E4080B50E4B5D
:100B500098470E4B98470E4B98470E4B98470E4BB5
:100B6000984702210D200D4B9847DFF840800C4F2D
:100B70000C4EC0474FF000653D6330460A4CA0471D
:100B80007D633046A047F4E78D040800F1040800B7
:100B900015040800AD030800DD0108000D0B080076
:100BA00000100E40B0710B00510408000104080051
:100BB00070B50F4E0F4D761BB61018BF002405D030
:100BC000013455F8043B9847A642F9D10A4E0B4D23
:100BD00000F0A8F8761BB61018BF002406D0013428
:100BE00055F8043B9847A642F9D170BD70BD00BFCF
:100BF000300D0800300D0800380D0800300D0800D9
:100C0000024B13B1024800F005B870470000000025
:100C1000210C0800002301461A46184600F01EB8B1
:100C200038B50A4C0A4D641BA4100AD004F1804365
:100C3000013B05EB8305013C55F804399847002C2E
:100C4000F9D1BDE8384000F077B800BF480D080082
:100C5000440D0800704700BF704700BF2DE9F843FE
:100C60002C4D0646286898460F469146FFF7F2FF3E
:100C7000294B1C68D4F84831002B3ED05A681F2AF3
:100C80001CDC02F1010E76B1012103EB8204C4F8F1
:100C90008890D3F8880191400843022EC3F8880158
:100CA000C4F8088123D00232C3F804E0286843F86E
:100CB0002270FFF7D1FF0020BDE8F883174B0BB37C
:100CC0004FF4C870AFF300800346D8B10020D4F8C9
:100CD00048114FF0010E586019600246C4F84831BF
:100CE000C3F88801C3F88C01002EDCD0CCE7D3F820
:100CF0008C010143C3F88C11D5E704F5A673C4F841
:100D00004831BBE72868FFF7A7FF4FF0FF30BDE889
:100D1000F88300BF98050720200D080000000000A0
:100D200070010720F8B500BFF8BC08BC9E467047AC
:100D3000010C080019010800F8B500BFF8BC08BC98
:080D40009E467047F500080013
:100D48004FF48063204A136002F5007213601F4B52
:100D58001B6A13F0807F07D11D4A1C4B1A621A4682
:100D6800936E13F0010FFBD01A4A184B1A621A46F9
:100D7800936E13F4803FFBD0144A136B23F00303E4
:100D880043F001031363936E13F0080FFBD0124A6C
:100D98000E4B9A621A46936E13F0020FFBD0112283
:100DA8000A4B1A631A46936E13F0080FFBD01222EF
:100DB800064B1A631A46936E13F0080FFBD0074AC6
:100DC800074B1A60704700BF000A0E4000060E402D
:100DD8000908370009083701013F0D2000BD01054A
:100DE8006C0107201B4B984215D91B4B984219D907
:100DF8001A4B98421ED91A4B984223D9194B98423C
:100E080094BF4FF480634FF4A063174A136002F550
:100E18000072136070470023134A136002F50072D2
:100E2800136070474FF480730F4A136002F5007225
:100E3800136070474FF400730B4A136002F5007299
:100E4800136070474FF44073074A136002F500724D
:100E580013607047BFEA21017FF0FA02FF8FD003C9
:100E6800FFB3C4047F4A5D05000A0E40A4060000D3
:100E7800E5070000F5080000AC090000820A000040
:100E8800AC090000F5080000E5070000A406000012
:100E980062050000510400009B0300005C03000091
:100EA80098030000510400006205000000093D009D
:100EB800000000005C040720C40407202C0507205C
:100EC800000000000000000000000000000000001A
:100ED800000000000000000000000000000000000A
:100EE80000000000000000000000000000000000FA
:100EF80000000000000000000000000000000000EA
:100F080000000000000000000000000000000000D9
:100F180000000000000000000000000000000000C9
:100F280000000000000000000000000000000000B9
:100F380000000000000000000000000000000000A9
:100F48000000000000000000000000000000000099
:100F58000000000000000000010000000000000088
:100F68000E33CDAB34126DE6ECDE05000B0000004D
:100F78000000000000000000000000000000000069
:100F88000000000000000000000000000000000059
:100F98000000000000000000000000000000000049
:100FA8000000000000000000000000000000000039
:0C12D80000000000000000002C060720B1
:040000038000095D13
:00000001FF
