S015000050726F6A656374536869656C642E73726563DF
S214080000F82C0720B1200800AD200800AD20080015
S214080010AD200800AD200800AD2008000000000054
S214080020000000000000000000000000AD200800EE
S214080030AD20080000000000AD200800AD20080034
S214080040AD200800AD200800AD200800AD2008004F
S214080050AD200800AD200800AD200800AD2008003F
S214080060AD200800AD20080000000000211F080091
S214080070351F0800491F08005D1F08000000000023
S2140800800000000099040800AD200800AD20080014
S214080090AD200800AD200800AD200800AD200800FF
S2140800A0AD20080000000000AD200800AD200800C4
S2140800B0AD200800AD200800AD200800AD200800DF
S2140800C0AD200800AD200800AD200800AD200800CF
S2140800D0AD200800AD200800AD200800AD200800BF
S2140800E0AD200800AD200800AD200800AD200800AF
S2140800F0AD20080010B5054C237833B9044B13B16E
S2140801000448AFF300800123237010BDE00A0720DF
S21408011000000000148D08000C4B43B10C4810B5C5
S2140801200C49AFF300800C48036823B910BD0A4891
S214080130036833B97047094B002BF7D0BDE8104069
S2140801401847064B002BF5D0184700BF00000000E4
S214080150148D0800E40A0720148D0800000000002B
S21408016038B52520134B9847134C0823134A1449CF
S2140801702046144DA84701234FF44012002120467C
S214080180114DA84700212046104B984707212046C6
S2140801900F4B98474FF0807120460E4B9847002229
S2140801A0114620460C4B984720460C4B9847002093
S2140801B038BD00BF5920080000000C4080DE8002D1
S2140801C0007A030A59030800AB0308008D030800E9
S2140801D0CD030800DB0308009D030800C7030800DA
S2140801E038B5054C2046054B984705462046044B2F
S2140801F09847284638BD00BF00000C40D7030800C3
S214080200C7030800002A51D02DE9F04F83B00546F1
S2140802100C4692468A44264FDFF8A890254E1DE0E5
S21408022021463846C8470028FAD121E09B46DFF821
S214080230988001A95846C0470028FAD1019B237028
S21408024019E09B46DFF8808001A95846C047002879
S214080250FAD1019B23700134544523D0002301931F
S214080260BD42DDD0144B9D42E0D0144B9D42E8D0F1
S214080270134B9D420BD0B542EDD1DFF84C8001A957
S2140802803046C0470028FAD1019B2370E3E79B4617
S214080290DFF8348001A95846C0470028FAD1019BE8
S2140802A02370D8E7002003B0BDE8F08F0020704721
S2140802B000080E4000400A400080094000C009407F
S2140802C000000A405B040800810408002DE9F0419C
S2140802D080B90C469046002A0FDD8F18084E094D47
S2140802E0306821462B6898470134BC42F8D140460E
S2140802F0BDE8F0814FF0FF38F9E78046F7E700BF22
S2140803004C0C0720440C07200138022815D82DE984
S214080310F0410E4614469AB10D46DFF838800C4F69
S214080320D8F8000015F8011B3B68984700280ADB38
S214080330A81B013CF4D1BDE8F0814FF0FF307047B0
S2140803401046BDE8F0814FF0FF30BDE8F08100BFF1
S214080350480C07204C0C072030B401240460002405
S214080360446040F20225C0F82051C0F80441C0F8A5
S214080370144145685200B1FBF2F2013A120292B2F9
S2140803802B431A434260204630BC7047436823F02C
S2140803901003436043681943416070474368D201BD
S2140803A0D2B219430A434260704710B4446809063B
S2140803B001F0706121430A43190701F040511143C7
S2140803C0416010BC7047022303607047012303FA9C
S2140803D001F101617047006A70474162704710B4C6
S2140803E089014318022444504FF0FF319962196A74
S2140803F05A6010BC7047C0F8C410704789010523BE
S21408040043507047890102234350704700EB81111F
S2140804100869704710B4AC2303600B684A68B3FBDE
S214080420F2F31B095C1E4FF6FE7294420BD8036269
S2140804308B68436040F20223C0F8203150230360E3
S214080440002010BC70470120FBE7436913F0020F39
S2140804501ABFC161002001207047436913F0010FDD
S2140804601DBF83690B70002001207047436913F095
S214080470020F1DBFC1F30801C161002001207047AB
S214080480436913F0010F05D08369C3F308030B60B3
S214080490002070470120704700B583B001220DF197
S2140804A007011048104B984772B6BFF35F8F0022BB
S2140804B00E4B1A700E4B1B789DF807100D4AD15438
S2140804C09B2B0BD001330A4A13700122074B1A7074
S2140804D0BFF35F8F62B603B05DF804FB0022044BDF
S2140804E01A70F2E700800940050208002C01072070
S2140804F0980B0720FC0A072000B583B00020204B85
S21408050098470190019A40F2A3639A4208DC019A40
S21408051040F2DC539A4203DD022003B05DF804FB88
S214080520019BB3F5FA6F06DD019A40F6FB039A4283
S21408053001DC0320F1E7019A40F6AC539A4206DD47
S214080540019A40F6D7639A4201DC0520E5E7019A4E
S21408055040F654339A4206DD019A40F647539A42CB
S21408056001DC0420D9E7019BB3F5FA7F06DD019884
S214080570B0F5617FACBF00200120CEE70020CCE7B5
S214080580E1010800F0B583B004460D460023019348
S214080590204B98420DD0204B984212D01F4B9842C1
S2140805A019D01F4B9C4220D01E4B9C4227D003B02C
S2140805B0F0BD1F461C4E29463846B0470028FAD1DB
S2140805C0EFE71F46194E01A93846B0470028FAD16A
S2140805D0019B2B70E8E71E46144C01A93046A0473D
S2140805E00028FAD1019B2B70E1E71E460F4C01A9A3
S2140805F03046A0470028FAD1019B2B70D7E71E4645
S2140806000A4C01A93046A0470028FAD1019B2B7056
S214080610CDE700BF00080E400080094000C0094032
S21408062000000A4000400A405B04080081040800F5
S21408063070B50C461E4B98420DD01E4B984213D0F0
S2140806401D4B984219D01D4B98421FD01C4B984200
S21408065025D0002070BD1E461A4D21463046A847B4
S2140806600028FAD1012070BD1E46174D2146304697
S214080670A8470028FAD1012070BD1E46124D214613
S2140806803046A8470028FAD1012070BD1E460E4DF8
S21408069021463046A8470028FAD1012070BD1E46DC
S2140806A0094D21463046A8470028FAD1012070BDDA
S2140806B000080E400080094000C0094000000A40BB
S2140806C000400A404B0408006D04080030B585B0A9
S2140806D00820154DA847154C154B1C60154A164B97
S2140806E01A60164A164B1A60164B01934FF4E133FC
S2140806F002934FF4006303930820A84701A92046F5
S214080700114B9847114D2B6800219868104CA0474C
S2140807102B6800215868A0470E480F4CA0470F4882
S214080720A04705B030BD00BF5920080000080E409D
S2140807304C0C072031060800480C072085050800E1
S214080740440C072000BD01051504080034010720E5
S214080750C52308009486080001230800A48608001C
S21408076010B51B20084B9847084C00221146204617
S214080770074B984700212046064B984700212046FD
S214080780054B9847002010BD592008000000084077
S214080790DF030800F703080005040800F8B5054657
S2140807A000210948094B98472A2404FB05F4064FFC
S2140807B00026074D31463846A847A042FAD30021FE
S2140807C00148044B9847F8BD00000840FD030800A0
S2140807D00D0408000504080070B50446064B984743
S2140807E0207838B10126054D3146A84714F8010F80
S2140807F00028F9D1002070BD010A080091080800F9
S21408080010B582B00446064B98472246054901A80B
S214080810054B984701A8054B9847002002B010BD25
S214080820010A0800B486080081250800D9070800D0
S21408083008B5052807D8DFE800F0140C10080318D8
S2140808400C480D4B9847002008BD0C480A4B9847A3
S214080850F9E70B48084B9847F5E70A48064B9847C8
S214080860F1E70948044B9847EDE70848024B9847D4
S214080870E9E700BFB8860800D9070800C086080060
S214080880C8860800CC860800D4860800DC860800DF
S214080890F0B585B005460C461D4B0FCB04AE06E9F1
S2140808A00F0006EB151313F8103CDB055CBB4FF482
S2140808B08001184A516303F0F062164C2263DB434A
S2140808C003F0F06363634FF4001727630120124EAA
S2140808D0B04767636420B04705F00F0504AB1D44B6
S2140808E015F8103CDB0503F0F0622263DB4303F0E7
S2140808F0F063636327630120B04767636420B047EB
S214080900002005B0F0BD4FF48001024A1163D2E71B
S214080910E486080000120E409D0708002DE9F047FF
S214080920344C4FF480072761C4F8A0704FF40015C4
S2140809302561C4F8A0504FF0F0632361C4F8A030D6
S214080940656347F230502C4EB04767634FF0806AB5
S214080950C4F830A04FF00079C4F830904FF0807893
S214080960C4F834804FF40007676325630120B04756
S214080970656341F20400B047C4F830A0C4F830906C
S214080980C4F83480676325630120B0476563642034
S214080990B047C4F830A0C4F83090C4F83480676311
S2140809A025630120B04765636420B047C4F834A0C7
S2140809B0C4F83090C4F83480676325630120B047D4
S2140809C065636420B047002128200C4CA04700210E
S2140809D00820A04700210120A04740F6B830B047BD
S2140809E000210620A04700210F20A0470020BDE8D0
S2140809F0F08700BF00120E409D0708009108080007
S214080A0008B500210120044B984740F6B830034B40
S214080A109847002008BD00BF910808009D070800F9
S214080A2080B52C4B98472C4B98472C4B98472C480E
S214080A302C4EB0470C222C492C482D4CA0470E2291
S214080A402C492D48A0472D4DA8472D48B0471422BD
S214080A502C492D48A04716222C492D48A047DFF8D8
S214080A60088140462B4FB84717222B492B48A047EA
S214080A70A8472B48B0471E222A492B48A0472322BE
S214080A802A492B48A047A8472A48B04728222A4977
S214080A902A48A047A8472A48B047322229492A4860
S214080AA0A0474046B847342228492948A047404628
S214080AB0B847362227492848A047A847274E284D32
S214080AC0284CB047A847A0474CF25030114B9847DF
S214080AD0F7E700BFF11B0800551C0800CD06080004
S214080AE0F4860800E51A0800148708000D0C0800AC
S214080AF0891A08003C870800390C0800011B080002
S214080B0058870800748708000D0E080090870800AC
S214080B106D0E08009D070800B08708003912080007
S214080B20CC870800E8870800710B08000C880800C6
S214080B30BD0B08003C88080054880800ED0B080028
S214080B406C8808008C880800B50C0800B488080073
S214080B50290D0800DC8808009D0D0800010A080019
S214080B60F90408003108080040420F007047704733
S214080B7010B582B000200B4B98470B4B1A6815230C
S214080B8000930A4B4FF0FF312020094CA047094B31
S214080B901A6816230093084B4FF0FF318020A047B1
S214080BA002B010BD6101080008070E400089080061
S214080BB0E118080018000C403089080010B582B00B
S214080BC00020084B9847242301931B2300930023F7
S214080BD0024640F6D8614FF4C870034CA04702B0EE
S214080BE010BD00BFE10108005919080008B5044BFC
S214080BF09847052803D010210248034B984708BD9C
S214080C00F9040800508908001D1A080010B582B0BB
S214080C10064B9847064B1A68182300930023194674
S214080C2040F21110034CA04702B010BD610708003F
S214080C3004000840E11808002DE9F04383B00120BD
S214080C40DFF86890C847DFF86880D8F800202323C4
S214080C500093002319464FF48030114FB847114EC1
S214080C60326824240194009400232A2128200E4D5B
S214080C70A847C820C847D8F8002027230093002391
S214080C8019464FF48030B8473268019428200090FF
S214080C90002342F2E401A84703B0BDE8F08300BF92
S214080CA0E118080010000840591908009D070800B8
S214080CB02000084030B583B0154B984740F24D5099
S214080CC0144B9847F0B9144B1D682A6816230093EE
S214080CD000234FF0FF314FF48000104CA0472A68DD
S214080CE017230093002319464FF40010A0472A68DC
S214080CF01A23009300234FF0E0614FF0F060A047FE
S214080D0003B030BD15210648064B9847DBE700BF01
S214080D10010A0800010808009C890800E118080074
S214080D206C8908001D1A080030B583B0144B984724
S214080D301448154B9847F0B9144B1D682A682123A8
S214080D40009300234FF0FF314FF48000104CA0476B
S214080D502A6822230093002319464FF40010A04760
S214080D602A682523009300234FF080614FF0F06037
S214080D70A04703B030BD20210648074B9847DBE75D
S214080D80010A080088890800D90708009C89080015
S214080D90E11808006C8908001D1A080030B583B0F1
S214080DA0144B98470420144B9847F0B9134B1D680A
S214080DB02A682C23009300234FF0FF314FF480005D
S214080DC00F4CA0472A682D230093002319464FF49A
S214080DD00010A0472A683023009300234FF0807144
S214080DE04FF0F060A04703B030BD2B210548064BF6
S214080DF09847DBE7010A0800310808009C890800C4
S214080E00E11808006C8908001D1A080030B583B080
S214080E10114B9847D8B9114D2A681423009300231C
S214080E2019464FF480000E4CA0472A6815230093F5
S214080E30002319464FF40010A0472A681823009389
S214080E4000234FF0F0610846A04703B030BD1321D9
S214080E500448054B9847DEE71D09080038120E407F
S214080E60E11808006C8908001D1A080070B582B0E1
S214080E7001216820B44B9847002840F09B81B34D69
S214080E802A682223009300234FF0FF314FF4800096
S214080E90AF4CA0472A6823230093002319464FF433
S214080EA00010A0472A682423009300234FF400016B
S214080EB04FF0F060A04701216520A34B9847002813
S214080EC040F07D81A14D2A682723009300234FF028
S214080ED0FF314FF480009E4CA0472A6828230093D1
S214080EE0002319464FF40010A0472A682A230093C7
S214080EF000234FF0A0614FF0F060A04701216C205E
S214080F00914B9847002840F05F81904D2A682D2322
S214080F10009300234FF0FF314FF480008C4CA0471D
S214080F202A682E230093002319464FF40010A04782
S214080F302A682F23009300234FF0C0714FF0F0600B
S214080F40A04701216C20804B9847002840F041813B
S214080F507E4D2A683223009300234FF0FF314FF46A
S214080F6080007B4CA0472A68332300930023194649
S214080F704FF40010A0472A683423009300234FF04C
S214080F80C0714FF0F060A04701216F206E4B984764
S214080F90002840F023816D4D2A68372300930023EC
S214080FA04FF0FF314FF48000694CA0472A68382379
S214080FB00093002319464FF40010A0472A683923E7
S214080FC0009300234FF0F0610846A04701212C202B
S214080FD05D4B9847002840F006815C4D2A683C2304
S214080FE0009300234FF0FF314FF48000584CA04781
S214080FF02A683D230093002319464FF40010A047A3
S2140810002A683E23009300234FF0C0714FF0F0602B
S214081010A047012120204C4B9847002840F0E88044
S2140810204A4D2A684123009300234FF0FF314FF4BE
S2140810308000474CA0472A6842230093002319469D
S2140810404FF40010A0472A6843230093002319464C
S2140810504FF0F060A047012177203B4EB0472A6842
S2140810604623009300234FF0FF314FF48000A0473B
S2140810702A6847230093002319464FF40010A04718
S2140810802A684823009300234FF0E0614FF0F06091
S214081090A04701216F20B047002840F0AE802B4DB6
S2140810A02A684B23009300234FF0FF314FF480004B
S2140810B0274CA0472A684C230093002319464FF470
S2140810C00010A0472A684D23009300234FF0F061D4
S2140810D00846A047012172201B4B9847002840F07D
S2140810E091801A4D2A685023009300234FF0FF3151
S2140810F04FF48000164CA0472A685123009300231B
S21408110019464FF40010A0472A685223009300237C
S2140811104FF000714FF0F060A04701216C200A4B99
S2140811209847002873D1094D2A6855230093002351
S2140811304FF0FF314FF48000054CA0472A6856232D
S21408114000930023194605E09108080038120E405F
S214081150E11808004FF40010A0472A6857230093A8
S21408116000234FF0C0714FF0F060A04701216420C3
S2140811702C4B984700284FD12B4D2A685A230093AA
S21408118000234FF0FF314FF48000284CA0472A6810
S2140811905B230093002319464FF40010A0472A68E3
S2140811A05C23009300234FF080714FF0F060A04757
S2140811B002B070BD21211E481E4B98475FE62621C7
S2140811C01B481C4B98477DE62C211948194B984715
S2140811D09BE631211648174B9847B9E6362114483E
S2140811E0144B9847D7E63B211148124B9847F4E62C
S2140811F040210F480F4B984712E74A210C480D4BE1
S21408120098474CE74F210A480A4B984769E7542104
S2140812100748084B984786E759210548054B9847DD
S214081220AAE700BF9108080038120E40E118080027
S2140812306C8908001D1A080030B583B0124B984711
S214081240E0B9124D2A6866230093002319464FF426
S21408125080000F4CA0472A6867230093002319468E
S2140812604FF40010A0472A686A23009300234FF023
S21408127080614FF0F060A04703B030BD6521054897
S214081280054B9847DDE700BF010A080038120E40F4
S214081290E11808006C8908001D1A080010B5936844
S2140812A0013B9360002B05DB1368581C106019700F
S2140812B0C8B210BD9469A34202DBCBB20A2BF3D1A5
S2140812C0014B984710BD00BFB94808002DE9F84300
S2140812D0B0F1004F0ED00546002824DB0124B5FBEC
S2140812E0F4F3092B35D904EB84035B009C4230DA0F
S2140812F01C46F4E72D4B186882689368013B936098
S214081300002B07DB1368591C11602D221A704FF04A
S2140813100045E3E791698B42F4DA2D21244B984780
S2140813204FF00045DAE7214B186882689368013B5E
S2140813309360002B06DB1368591C11602D221A7067
S2140813406D42CBE791698B42F5DA2D21184B984709
S214081350F6E7164FDFF86090DFF854800BE0136866
S214081360581C10601970134B83FB0423E417C4EB56
S214081370A304002C18DD3868B5FBF4F1A9FB01239B
S214081380DB0803EB8303A1EB43013031C9B2826863
S2140813909368013B9360002BE1DA9669B34201DB60
S2140813A00A29DCD1C047DEE7BDE8F8833401072008
S2140813B0B948080067666666CDCCCCCC2DE9F843FC
S2140813C006460124B6FBF4F3092B06D904EB84037E
S2140813D05B009C4201D21C46F4E7DFF85890144D97
S2140813E0DFF8548007E01368581C10601970A5FBD6
S2140813F00434E40819D0D9F80000B6FBF4F1A5FBCC
S2140814000123DB0803EB8303A1EB43013031C9B2A8
S21408141082689368013B9360002BE4DA9769BB42C5
S21408142001DB0A29DFD1C047E1E7BDE8F88300BF42
S214081430CDCCCCCC34010720B94808002DE9F041C2
S21408144005460C46314B186882689368013B9360E2
S214081450002B19DB1368591C116030221A702B4BAD
S214081460186882689368013B9360002B13DB136847
S214081470591C116078221A70A4B1013CE4B2A40089
S214081480224EDFF88C8017E091698B42E2DA302131
S2140814901F4B9847E3E791698B42E8DA78211C4BA3
S2140814A09847E9E7BDE8F0811368581C1060197082
S2140814B0043C14F1040F26D025FA04F101F00F01BC
S2140814C009290CD83068303182689368013B9360EC
S2140814D0002BE9DA9769BB42E6DAC047E8E73068E6
S2140814E0373182689368013B9360002B04DB1368EE
S2140814F0581C10601970DBE79769BB4201DB0A29A4
S214081500F5D1C047D4E7BDE8F08100BF3401072015
S214081510B9480800002800F08C802DE9F041044600
S2140815200178002900F08380424DDFF81081424E92
S21408153067E0286882689368013B9360002B04DBA9
S2140815401368581C1060197058E09769BB4201DB95
S2140815500A29F5D1C04751E0286882689368013B9C
S2140815609360002B11DB1368591C11605C221A70FB
S214081570286882689368013B9360002B0BDB13682E
S214081580591C116072221A7038E091698B42EADAA7
S2140815905C21C047ECE791698B42F0DA7221C047BC
S2140815A02CE0286882689368013B9360002B11DB67
S2140815B01368591C11605C221A7028688268936840
S2140815C0013B9360002B0BDB1368591C11606E22DD
S2140815D01A7013E091698B42EADA5C21C047ECE79F
S2140815E091698B42F0DA6E21C04707E01368591CF0
S2140815F011605C221A7002212078B04714F8011F87
S214081600A9B1A1F12003DBB25E2B92D90D29A3D094
S2140816100A29C6D0286882689368013B9360002B25
S214081620E4DA91698B42E1DA5C21C047E3E7BDE87A
S214081630F0817047340107203D140800B9480800B7
S21408164010B50C46224B9847224B18688268936858
S214081650013B9360002B26DB1368591C11603A2265
S2140816601A7020461C4B98471A4B1868826893686D
S214081670013B9360002B1DDB1368591C11603A224E
S2140816801A70164B5868124B9847124B186882689F
S2140816909368013B9360002B13DB1368591C116099
S2140816A03A221A7010BD91698B42D5DA3A210C4B52
S2140816B09847D6E791698B42DEDA3A21084B984775
S2140816C0DFE791698B42E8DA3A21054B984710BD67
S2140816D01515080034010720CD120800500C072005
S2140816E0B948080008B501460D4B18680D4B9847D1
S2140816F00D480E4B98470E4B186882689368013B56
S2140817009360002B05DB1368591C11603A221A7087
S21408171008BD91698B42F6DA3A21064B984708BD10
S214081720500C072041160800FC890800151508000B
S21408173034010720B948080038B138B504460348CC
S214081740034DA8472046A84738BD7047308A08008A
S2140817501515080008B511F0100F08D111F0200F64
S21408176008D1490001F01E01074B984708BD074BF2
S214081770984708BD01F00F010139054B53F8213091
S2140817801840044B984708BD3D140800CD120800C1
S214081790A0890800BD1308002DE9F04707468846CB
S2140817A020254FF00044244E4FF05809DFF88CA04F
S2140817B007E01368591C116031221A706408013D4D
S2140817C037D0274222D018EA040F0CD03068826837
S2140817D09368013B9360002BEBDA91698B42E8DA59
S2140817E03121D047EAE7306882689368013B936006
S2140817F0002B05DB1368591C116030221A70DDE7D0
S21408180091698B42F6DA3021D047D7E7306882688C
S2140818109368013B9360002B05DB1368591C116025
S21408182083F80090CAE791698B42F6DA4946D047B2
S214081830C4E7BDE8F08700BF34010720B9480800B0
S21408184008B50248024B984708BD00BFFC89080047
S2140818501515080008B50248024B984708BD00BF92
S214081860048A08001515080008B5174BDB69C3B9C4
S214081870154B9B69D3B1144A136901331361124B94
S21408188000229A61DA61114B186882689368013BF6
S2140818909360002B13DB1368591C11600A221A7018
S2140818A008BD094A536901335361E8E7064B99684E
S2140818B01868074B98470748074B9847DFE70A21F9
S2140818C0064B984708BD00BF500C07203401072078
S2140818D041160800088A080015150800B9480800C7
S2140818E02DE9F041144CA46934B9134CE4691CB9C9
S2140818F081EA0204044201D1BDE8F0811F4616467B
S2140819000D46044606980D4B98470D48DFF8448068
S214081910C047294620460B4DA8470B48C0473146C6
S2140819202046A8473846094B984703480121816155
S2140819302030074B984700BF500C0720E5160800D4
S214081940F089080099170800348A08003917080033
S214081950E1230800151508002DE9F8439DF82450E2
S214081960254CA46924BB244CE4690CBB15F0100F65
S21408197011D08A4207DD541AA042ACBF00240124C5
S2140819801D4EB46111E08C1A8442D4BF0024012491
S214081990194EB46109E08A428CBF541A8C1A8442E4
S2140819A094BF00240124144EB461134CA4690CB9E6
S2140819B0BDE8F8831F4690468946044608980F4BAC
S2140819C098470F480F4EB047294620460E4CA0476A
S2140819D00E48B04729464846A0470D48B04729460E
S2140819E04046A04738460B4B98470348012181617B
S2140819F02030094B984700BF500C0720E516080012
S214081A00D48908001515080055170800F08908003D
S214081A10348A080039170800E1230800134B9B692D
S214081A2013B9124BDB6903B1704710B504460F4B68
S214081A3018680F4B98470F4B98478CB10E4B186891
S214081A4082683A210D4B98472378202B05D00A4BFD
S214081A50186882682021094B98472046084B984703
S214081A600248012181612030064B9847500C072018
S214081A704116080041180800340107209D12080086
S214081A8015150800E123080000B583B001900F483B
S214081A9041608260C3680133C36020300C4B9847AE
S214081AA058B10C480A4B984710B9084BDB694BB13C
S214081AB0094B984703B05DF804FB084B9847019B11
S214081AC09847EEE7064B9847F2E700BF500C07200A
S214081AD0D5230800700C0720691808006D0B08004D
S214081AE06F0B0800054B186000225A609A60DA608F
S214081AF01A615A619A61DA61704700BF500C072074
S214081B0070B5304B186882689368013B9360002B69
S214081B1045DB1368591C11600A221A702A482B4B99
S214081B209847284B186882689368013B9360002B97
S214081B3039DB1368591C11600A221A70244EF068A3
S214081B40244DA8472448214CA0473069A847234875
S214081B50A0477069A8472248A0471A4B18688268A9
S214081B609368013B9360002B21DB1368591C1160B6
S214081B700A221A70164B1B69EBB11A4B9847114B81
S214081B80186882689368013B9360002B16DB13681D
S214081B90591C11600A221A700D4B186970BD0A216B
S214081BA0114B9847BAE70A210F4B9847C6E70A2110
S214081BB00D4B9847DEE70D4B9847E0E70A210A4B9E
S214081BC09847E9E734010720BC890800151508007E
S214081BD0500C0720CD120800288A0800108A080032
S214081BE01C8A080041180800B9480800551808005B
S214081BF010B50E480E4B98473E2100200D4B9847CF
S214081C000D4CA0470028FCD00C4B98470C4A0D4BAF
S214081C109A620D4CA0470028FCD010200B4B984722
S214081C200B4B98470148024B984710BD00BD01056D
S214081C30A5000720D51F080029200800392008001D
S214081C40013F0D2000060E4049200800711F0800BD
S214081C504921080010B54FF40042124B5A600B2079
S214081C60114CA0470C20A0470D20A0470E20A047E7
S214081C704FF060513B200D4CA0474FF06051552067
S214081C80A0474FF060515620A04709496820A04752
S214081C9008495C20A047084A4FF440710748084B9B
S214081CA0984710BD501A0E4059200800651D0800B8
S214081CB0790000280100002801000008000E0E40E8
S214081CC0351E08004264B1F1805F16D00BD849B1C2
S214081CD0B1F1006F05D1036F016F0B4023EA0203D1
S214081CE0036742607047B1F1405FFBD0B1F1605FB7
S214081CF0F8D0B1F1205FF4D17047036F1343036740
S214081D00EFE7416412F0010F14BF4166016612F056
S214081D100A0F14BF0162416212F0020F07D112F0D7
S214081D20080F18BFC0F88410416101607047C0F8FA
S214081D308010F9E710B4019C416444B9016643B1C8
S214081D40016542B941630161016010BC7047416694
S214081D50F5E74165F5E70163F5E7C06C7047806C09
S214081D607047000070B582B00D46430903F50013AE
S214081D7003F207735C0201F0F043B3F1205F31D041
S214081D8016D8B3F1006F1BD0B3F1805F16D100F000
S214081D901F000126864032464FF080512046224BCF
S214081DA0984715F0010F14BF66662666012017E0EF
S214081DB0B3F1405F21D0B3F1605F1ED000200FE082
S214081DC000F01F000126864032464FF0006120468C
S214081DD0154B984715F0010F14BF66662666012056
S214081DE002B070BD00F01F0101262A4606FA01F16E
S214081DF020460E4B98473046F2E705F0605200F052
S214081E001F01012605EA06030093C5F38003B2F115
S214081E10605F14BF0022012206FA01F12046044C36
S214081E20A0473046DCE700BFC51C0800031D0800B5
S214081E30351D080070B582B005460E46144602F0F9
S214081E40F043B3F1205F27D011D8B3F1006F16D056
S214081E50B3F1805F11D10A464FF08051194B98476D
S214081E6014F0010F14BF6E662E66012012E0B3F15F
S214081E70405F15D0B3F1605F12D000200AE00A4632
S214081E804FF000610F4B984714F0010F14BF6E66B1
S214081E902E66012002B070BD0B4B98470120F9E76B
S214081EA004F0605204F001030093C4F38003B2F117
S214081EB0605F14BF0022012231462846034CA04723
S214081EC00120E7E7C51C0800031D0800351D0800AB
S214081ED02DE9F041044688460E4B984705462046AD
S214081EE00D4B9847054013D00C4C04F1600603E0F0
S214081EF0B4420DD010345DB120684045F8D1616811
S214081F002942F5D0E3689847636825EA0305EFE7B2
S214081F10BDE8F0815B1D08005F1D08009C0B0720CC
S214081F2008B50B210148024B984708BD000E0E4025
S214081F30D11E080008B50C210148024B984708BD79
S214081F4000100E40D11E080008B50D210148024BAE
S214081F50984708BD00120E40D11E080008B50E218D
S214081F600148024B984708BD00140E40D11E0800D1
S214081F70174A136B23F0700318431063936E13F01D
S214081F80080F0AD14FF4006311498A6E12F0080F41
S214081F9003D1013BF9D1012070470D4A136B23F09A
S214081FA0030343F002031363936E13F0080F0AD17A
S214081FB04FF4006306498A6E12F0080F05D1013BFC
S214081FC0F9D101207047002070470020704700BFF5
S214081FD000060E40C8B9114A136A090289B223F4EA
S214081FE05C1323F0030343F45C1343F001030B4331
S214081FF01362936E13F0010FFBD0084A136A43F07E
S2140820009B7343F480331362704704490B6A044A8F
S2140820101A40044B13430B62704700BF00060E407D
S214082020FCFFC8FE02003701024B986E00F48030B1
S214082030704700BF00060E404FF00052014B9A62F0
S214082040704700BF00060E40024B986E00F0020074
S214082050704700BF00060E402C281ED81F280CD834
S214082060114B9A6901238340934318D0012303FA3E
S21408207000F00D4B18610020704720380A4BD3F843
S21408208008210123834093430BD0012303FA00F071
S214082090054BC3F800010020704701207047002058
S2140820A070470020704700BF00060E40FEE700009D
S2140820B008B51C4B1C4A9A4210D01C4B194A9A4227
S2140820C00CD2013B9B1A23F003030433134416492E
S2140820D051F8040B42F8040B9A42F9D1144B154AEE
S2140820E09A420AD2013B9B1A23F003030433134493
S2140820F0002142F8041B9342FBD10F4B23F06042A9
S21408210022F07F020D498A6003F16043B3F5801F11
S21408211003D28B6843F000538B60094B9847094BF2
S2140821209847FEE700000720148D0800E00A0720FD
S214082130F40C0720E00A07200000080000ED00E085
S214082140B1220800210A08003D4B1B6B03F003036D
S214082150032B0ED8DFE803F0021C3838394B5B69CE
S21408216013F0800F14BF4FF400424FF4FA42364B78
S2140821701A60334B1B6B03F07003702B57D0304B31
S2140821801A6B3149C2F302120B68D3400B607047D2
S2140821902B4B1B6A13F0807F03D02C4A2A4B1A60FD
S2140821A0E7E72B4A284B1A60254B1B6A03F0700397
S2140821B0102B05D0202BDCD1244A234B1A60D8E7F5
S2140821C0244A214B1A60D4E71D4B1B6A13F0807F04
S2140821D00CD01E4A1C4B1A60194B1B6B03F00303EA
S2140821E0022B16D01C4A184B1A60C2E7184A164B20
S2140821F01A60134B1B6A03F07003102B05D0202BB4
S214082200EAD1124A104B1A60E6E7124A0E4B1A60D9
S214082210E2E70B4A916A926A0B48C1F30A410368DF
S21408222001FB0333D2B2B3FBF2F30360A1E7064A1D
S21408223013680A49A1FB03135B081360704700BFC5
S21408224000060E40101A0E4030010720001BB7008B
S21408225000093D0000127A00001C4E0EABAAAAAA7E
S2140822600A4B1B6853B1094B1B681A180849914258
S21408227008DB1046054A106018467047054A034BA7
S2140822801A60F0E74FF0FF30704700BF0C0C0720CD
S214082290FC7F0820F82C07204FF0FF3070474FF4DB
S2140822A000534B600020704701207047002070479D
S2140822B070B50F4E0F4D761BB61018BF002405D00C
S2140822C0013455F8043B9847A642F9D10A4E0B4DFF
S2140822D006F00AFD761BB61018BF002406D0013497
S2140822E055F8043B9847A642F9D170BD70BD00BFAB
S2140822F0F48C0800F48C0800FC8C0800F48C0800A9
S2140823000FB410B5074B82B004AC54F8042B186809
S21408231023468168019401F047FC02B0BDE81040EE
S21408232004B070473401072070B4860746D0541EA0
S214082330002A41D0CAB2034602E014F1FF343BD368
S21408234003F8012B9D07F8D1032C2ED9CDB245EA08
S21408235005250F2C45EA054519D9264603F110022E
S214082360103E0F2E42F8105C42F80C5C42F8085CEF
S21408237042F8045C02F11002F2D8A4F1100222F02E
S2140823800F0204F00F041032032C13440DD91E4616
S2140823902246043A032A46F8045BFAD8221F22F09B
S2140823A003020432134404F003042CB1C9B21C44DB
S2140823B003F8011B9C42FBD170BC704714460346C9
S2140823C0C2E700BF00290CBF022200224FF4806338
S2140823D000F00EB8EC46A0E8F05F4FF0000070473B
S2140823E0B0E8F05FE546080008BF0120704700BF68
S2140823F02DE9F043614D83B02D6804460F4690469C
S2140824001E4615B1AB6B002B64D0B8F1020F06D090
S214082410B8F1010F00F29F80002EC0F29C80636E18
S214082420D80734D52146284603F064FB216B41B112
S21408243004F14003994202D0284603F0D9FC002351
S21408244023630022B4F90C30A26162601A063AD4FB
S21408245023F44A6323F00303B8F1020FA3811DD0C7
S21408246001AB6A462146284603F06EFFA389184347
S214082470A081002E32D1009E304603F0DDFF0746CD
S21408248000286BD0A38943F08003A38128E0A389A2
S2140824909905C7D4A06D03F053FFC3E700250026AF
S2140824A00120616E04F1430243F00203A660CE07E2
S2140824B0A38160612260226101D498053ED5284632
S2140824C003B0BDE8F0832169284603F091FCB4F90F
S2140824D00C30BDE7284603F065FB96E7002FCBD007
S2140824E0AB6B002B33D0009BB4F90C209E421CBF6C
S2140824F042F40062A281B8F1010F04BF42F0010263
S214082500A28192B212F008032760276166610ED096
S214082510D1071AD50023656E764215F00105A66127
S214082520A36009D00025284603B0BDE8F083A36061
S214082530656E15F00105F5D19305C0D4A06D03F0BE
S21408254001FF284603B0BDE8F083A660F0E72846FA
S21408255003F028FBC7E74FF0FF35B0E7DDF800903B
S214082560B14504D0484603F067FF074620B9B4F9DA
S2140825700C304FF0FF3592E74E4683E734010720CC
S2140825800EB40146F0B56FF000454FF402774FF6EB
S214082590FF769CB021AC54F8042B0B4B02910691A5
S2140825A0186802A923460194ADF814700495079597
S2140825B0ADF8166000F038F80022029B1A701CB0BE
S2140825C0BDE8F04003B070473401072020F003014F
S2140825D010F00300C0F1000051F8043B00F1040CB1
S2140825E04FEACC0C6FF000021CBF22FA0CF2134321
S2140825F04FF0010C4CEA0C2C4CEA0C4CA3EB0C02EA
S21408260022EA030212EACC1204BF51F8043B043053
S214082610F4D0C2F1000102EA0102B2FA82F2C2F173
S2140826201F0200EBD20070472DE9F04FC3B00C46EE
S2140826300B9192460F930C9003F070FE03681846B1
S2140826401A93FFF7C3FFA3891990190603D52369C0
S214082650002B01F0358000230DF1C809C8461593F4
S2140826601393149318931B9309931693179327930E
S2140826702693CDF894909AF800305446EBB1252B63
S21408268002D11AE0252B03D014F8013F002BF9D10C
S214082690A4EB0A058DB1269B279A01332A44072BFB
S2140826A0C8F800A0C8F804502792269300F38A803A
S2140826B008F10808099B2B4409932378002B00F09F
S2140826C0898000234FF0FF301A468DF87730194678
S2140826D00D939B46637804F1010A0A900AF1010AF1
S2140826E0A3F12000582800F2B783DFE810F04C0367
S2140826F0B503B5035403B503B503B503B503B5036E
S214082700B50359005903B50366001402B5032F0232
S214082710A503A503A503A503A503A503A503A5036C
S214082720A503B503B503B503B503B503B503B503EC
S214082730B503B503B5038B02D302B503D302B503BD
S214082740B503B503B5031B03B503B5032003B503EB
S214082750B503B503B503B5033402B503B5034B0299
S214082760B503B503B503B503B503B503B503B5039C
S214082770B503B50376029E03D302D302D3026303DE
S2140827809E03B503B5036803B5037503DD018C0323
S2140827905E03B503F201B5038700B503B50332033C
S2140827A00F9C236818460D932346002803F104035C
S2140827B00F9304DA0D9B5B420D934BF0040B9AF8CB
S2140827C000308BE725AA0B990C9804F029FF40B92E
S2140827D0C8466FE7279B23B10C9825AA0B9904F0E7
S2140827E01FFF0B9B9B8913F0400F099B18BF4FF0E8
S2140827F0FF330993099843B0BDE8F08F1BF0200F0C
S214082800119340F0AF810F9A1BF0100F134640F05B
S2140828109A851BF0400F00F0968500250123148842
S21408282004320F92002217468DF877200A994A1C20
S21408283000F010822BF08002079254EA050240F05E
S2140828400F82002940F03184002B40F039851BF0B8
S21408285001030E9300F06286302342AE06F8413D2F
S2140828600A9B0E9A9342B8BF134608930023129306
S21408287017B1089B01330893079B13F002031093C4
S21408288002D0089B02330893079B13F0840540F098
S21408289010830D9B089AA3EB020BBBF1000F40F3C5
S2140828A00883BBF1100F40F3B287279C43462146A6
S2140828B0A8461027269A0C9C0B9D06E0ABF1100B39
S2140828C0BBF1100F03F1080318DD0132AB481031D5
S2140828D0072A2791269283E88100EFDD25AA294654
S2140828E0204604F09DFE00287FF47BAFABF1100B6A
S2140828F0BBF1100F4B462799269AE6DC45460C4650
S214082900984601329D4B5C44072A2794269288E80D
S214082910080800F3C3829DF8777008F1080887B1A5
S2140829200121269B0C440B440DF17702072B2794B4
S2140829302693C8F80410C8F8002000F3CD8308F1E1
S2140829400808109B7BB10221269B0C4401331EAA63
S214082950072B27942693C8F80410C8F8002000F31D
S214082960118408F10808802D00F004830A9B0E9A4B
S2140829709F1A002F37DD102F40F37986804D424688
S2140829802146B0464FF0100B2E46269B0C9C0B9DFE
S21408299004E0103F102F02F1080215DD0133103154
S2140829A0072B2791269382E84008F2DD25AA2946B8
S2140829B0204604F035FE00287FF413AF103F102F92
S2140829C04A462799269BE9DC35460C4646469046F5
S2140829D001333C44072B2794269388E8A00000F38D
S2140829E0708308F10808079BDF0500F16482269BC0
S2140829F00E9901330C44072B2794C8F80060C8F8D2
S214082A000410269300F3B38308F10808079B5B07B6
S214082A103BD50D9B089A9D1A002D36DD102D40F3E8
S214082A2021871026269B0C9FDDF82CB004E0103D6D
S214082A30102D08F1080816DD0133504A1034072B0C
S214082A402794269388E84400F1DD25AA5946384697
S214082A5004F0E6FD00287FF4C4AE103D102DC846ED
S214082A60279C269BE8DC0133444A2C44072B2794F2
S214082A70269388E8240008DD25AA0B990C9804F00C
S214082A80CFFD00287FF4ADAE279C099B0D9A0899C8
S214082A908A42ACBF9B185B180993002C40F0FB8257
S214082AA00023C8462693E6E511931BF0200340F062
S214082AB045811BF0100240F066841BF0400300F0CE
S214082AC062840F9913460A4604320C8800250F9232
S214082AD0A8E600250F9A119316688DF87750141DEE
S214082AE0002E00F0CD860A9A531C00F01B86294655
S214082AF0304603F061FF002800F00D87831B0A9517
S214082B000E930F94CDF81CB023EAE373089312953E
S214082B109DF87770ACE69AF800300AF101042A2B83
S214082B2000F0C287A3F130000928A24600F21887F1
S214082B3000231C461AF8013B04EB840400EB44040B
S214082B40A3F130000928F5D90A94C9E54BF0800BA3
S214082B509AF80030C2E54BF0100B1BF0200F1193CB
S214082B603FF451AE0F9C073424F0070303F1080224
S214082B70D3E900450F92012354E600BF848A080073
S214082B80948A08001193002A40F0AD87BE4B1BF0CC
S214082B90200F189340F0E7800F9A1BF0100F13468B
S214082BA040F0D8831BF0400F00F0D4830025043390
S214082BB014880F931BF0010F00F0E38054EA050316
S214082BC000F0DF8030239DF844208DF878308DF8AB
S214082BD079204BF0020B022324E6012211930023EE
S214082BE011460F98089202681F468DF877300A93A8
S214082BF01293031DCDF81CB00E918DF8A0200F93EC
S214082C0028AE39E61193002A40F084874BF0100B63
S214082C101BF0200F40F075840F9A1BF0100F134618
S214082C2040F09D831BF0400F00F09983B2F90040F6
S214082C300433E5170F9322462B46002A73F1000348
S214082C40C0F298830A999DF877704A1C4FF00103E2
S214082C507FF4F0AD54EA050200F02982CDF81CB0E6
S214082C60012B00F00E83022B40F09C824E461898EB
S214082C70230943EA0573290904F00F020D461C468A
S214082C80835C06F8013D54EA0503F1D1A9EB060377
S214082C900E93E5E51193002A40F038870F9C1BF049
S214082CA0080F04F1070400F0CF8424F0070303F1AB
S214082CB008020F921A685B6815921493149B159D68
S214082CC023F00044284621464FF0FF326F4B05F0AC
S214082CD01BFB002840F03484284621464FF0FF327C
S214082CE06A4B05F0F3FA002840F02A8415A80DC8A8
S214082CF0149905F0E1FA002840F0D4859DF877701D
S214082D0003231A4608930023614E19460A93614B1B
S214082D100E92119A2BF0800007901291472AD8BF7E
S214082D201E46A5E54BF0080B9AF80030D6E44BF0A3
S214082D30100B11931BF020033FF4BBAE0F9C073417
S214082D4024F0070303F10802D3E900450F92002395
S214082D5068E51193002A40F0C2864F4B1BF0200FFF
S214082D6018933FF419AF0F9C1BF0010F04F10704EA
S214082D7024F0070303F108020F92D3E900457FF415
S214082D801DAF02234EE59AF8003000297FF4A6AC62
S214082D9001222021A2E44BF0010B9AF800309DE4B2
S214082DA09AF8003001222B2198E44BF0200B9AF871
S214082DB0003093E44BF0400B9AF800308EE49AF813
S214082DC000306C2B03BF9AF801304BF0200B0AF149
S214082DD0010A4BF0100B81E4002A40F07C861BF0B9
S214082DE0200F40F052841BF0100F40F038841BF080
S214082DF0400F00F034840F9A136804320F92BDF81F
S214082E0024201A8037E4782330220F988DF87930FA
S214082E101193031D0F93204B046818934BF0020B75
S214082E208DF8782000250223FCE41193002A3FF44D
S214082E30EFAE8DF87710EBE600200446A3F13000DD
S214082E401AF8013B04EB840400EB4404A3F13000B9
S214082E500928F5D90D9443E41193002A40F04A86D0
S214082E60119A002A3FF4B6AC002301211F460891A8
S214082E708DF8A020CDF81CB08DF877300A93129301
S214082E800E9128AEF8E400BF508A0800FFFFEF7FD7
S214082E90448A0800408A0800648A080025AA0B9914
S214082EA00C9804F0BDFB00287FF49BACC8469DF840
S214082EB07770279C33E5119B652B40F39A8015A8FD
S214082EC00DC8149905F0EEF9002800F09381012149
S214082ED0269BB54A0B440C44072B27942693C8F820
S214082EE00410C8F8002000F3C68308F108081F9BE2
S214082EF0139A279C934203DB079BDD077FF586AD75
S214082F00269B199901331A9A0C44072BC8F80020F7
S214082F10C8F804102794269300F3C48308F1080819
S214082F20139B5E1E002E7FF771AD102E40F375853D
S214082F3022461027269B9D4DDDF830B00B9C05E0F9
S214082F4008F10808103E102E40F32582013310328F
S214082F50072B2792269388E8A000F1DD25AA2146AC
S214082F60584604F05DFB00287FF43BACC846279A19
S214082F70269BE7E70D9B089A9F1A002F7FF7F6AC6B
S214082F80102F40F3A884894D42462146B0464FF09C
S214082F90100B2E46269B0C9C0B9D04E0103F102F12
S214082FA002F1080215DD01331031072B279126930D
S214082FB082E84008F2DD25AA2946204604F030FBC0
S214082FC000287FF40EAC103F102F4A462799269B00
S214082FD0E9DC35460C464646904601333C44072B0A
S214082FE02794269388E8A00000F39E8208F1080834
S214082FF0BCE4139B012B40F34F820123269F1C44FD
S2140830001F44072F2794C8F800602697C8F804308E
S21408301000F35F8208F10808199A01371A9B1444CE
S214083020072F27942697C8F80030C8F8042000F31E
S2140830305C8208F1080815A80DC8149905F032F93D
S214083040139B002840F04181013B013701361C44A0
S214083050072FC8F8006026972794C8F8043000F3AE
S214083060668108F108081B9A0137144421AB072F1C
S21408307027942697C8F80420C8F800307FF7C4AC11
S21408308025AA0B990C9804F0CBFA00287FF4A9AB74
S214083090C846279CBAE425AA0B990C9804F0C0FAEF
S2140830A000283FF4FDACFFF79CBBDDF81CB0012BF5
S2140830B000F07E81022B71D1CDF81CB000240025CB
S2140830C0D4E525AA0B990C9804F0AAFA00287FF4F0
S2140830D088ABC846279C86E425AA0B990C9804F06A
S2140830E09FFA00287FF47DABC846279C29E4012078
S2140830F0269B2D4A03440444072B27942693C8F896
S2140831000400C8F8002040F3D88225AA0B990C982A
S21408311004F086FA00287FF464ABC8461F99279CFB
S21408312029B9139B1BB9079BD8077FF56FAC19986D
S214083130269B0246013322441A9C072B2792C8F87E
S2140831400040C8F80400269300F3318408F1080804
S2140831500029C0F20984139901338C18072B279489
S2140831602693C8F80060C8F804107FF74DAC25AA67
S2140831700B990C9804F054FA00287FF432AB279C7D
S214083180C84643E425AA0B990C9804F049FA002887
S2140831907FF427ABC846279CFFF7E5BB002400252D
S2140831A0CDF81CB0494604E0808A0800948A0800D6
S2140831B03146E20842EA4572E80804F00703054685
S2140831C01446303354EA050201F8013C01F1FF3693
S2140831D0EED1079AD2077FF559AD302B3FF456AD9E
S2140831E03023023906F8013CA9EB01030E930E467C
S2140831F0FFF736BB1F9900297FF779AF129B139A02
S2140832009342A8BF1346002B1F460BDD269B3C4463
S2140832100133072B279488E8C000269300F3FB8227
S21408322008F10808129B002FA8BFDB1B002B1F46BF
S21408323040F3D780102B40F33484BA4D42462146DB
S214083240B0464FF0100B2E46269B0C9C0B9D04E0B8
S2140832500832103F102F40F3B58001331031072B8A
S2140832602791269382E84008F2DD25AA29462046BB
S21408327004F0D6F900287FF4B4AA4A462799269B74
S214083280E7E7002D08BF0A2CC0F090804E4620467F
S21408329029460A22002305F075F8303206F8012D73
S2140832A02046294600230A2205F06CF804460D46F7
S2140832B054EA0503EBD1A9EB06030E93FFF7D0BA41
S2140832C00A9B4E460E93FFF7CBBA5E1E002E7FF77C
S2140832D0CAAE102E40F3E38322464FF0100B914DF2
S2140832E00C9C04E0103E102E08F1080815DD013786
S2140832F01032072F2792269788E82008F2DD25AA9D
S2140833000B99204604F08CF900287FF46AAA103E30
S214083310102EC846279A269FE9DC144601373444FF
S214083320072F2794269788E860007FF79AAE25AA85
S2140833300B990C9804F074F900287FF452AA279C7D
S214083340269FC8468FE604321C68002501230F9284
S214083350FFF768BA1C6804330F9300252AE41C6834
S2140833600433E51722460F932B46002A73F1000311
S214083370BFF668AC2D27644265EB45058DF8777077
S2140833800123FFF753BA0F9900250A4604320C6842
S2140833900F92FFF747BA144601333444072B279495
S2140833A0269388E860007FF72FABE0E6DDF81CB0D0
S2140833B0012342AE3034CDF81CB006F8414D0E93CA
S2140833C0FFF74EBA35460C464646904601333C440F
S2140833D0072B2794269388E8A00000F3468208F176
S2140833E008081F9A139B9A4245DB079BD90742D4C5
S2140833F0139B12989A1A1D1A9542A8BF1546002DB7
S2140834000EDD2699064401312C440729C8F80060C9
S2140834102794C8F80450269100F3168208F1080885
S214083420002DB4BF1646561B002E7FF7EFAA102EA7
S21408343040F3F38222461027269B3A4DDDF830B03B
S2140834400B9C04E008F10808103E102EA3DD01339B
S2140834501032072B2792269388E8A000F2DD25AACB
S2140834602146584604F0DCF800287FF4BAA9C84676
S214083470279A269BE8E7269B199801331A9904444D
S214083480072B2794C8F80010C8F80400269300F302
S214083490CF8108F10808ABE7079BDA073FF5ADAD23
S2140834A00123269F1C441F44072F2794C8F8006052
S2140834B02697C8F804307FF7D4AD25AA0B990C9840
S2140834C004F0AEF800287FF48CA9C846279C269FEF
S2140834D0C9E525AA0B990C9804F0A2F800287FF4F1
S2140834E080A9C846279C269F96E525AA0B990C987E
S2140834F004F096F800287FF474A9C846279C269FEF
S21408350099E50F9C073424F0070404F10801D4E970
S21408351000230F9114461D46FFF78FBB4E46FFF754
S2140835209FB900BF948A080025AA0B990C9804F046
S21408353077F800287FF455A9C846279CFFF716BADF
S214083540159C22462046149C2346214604F0DCFEA1
S214083550002840F073820A9B0133119B23F0200356
S2140835600E9300F09C81472B00F0D6804BF48073B6
S2140835700793149B1F1E159B0893B7BF3B46002353
S21408358003F100472D231093119B662B00F09081C2
S214083590462B00F0A48002200E9B23A9452B0ABFC9
S2140835A00A9B0A9D5D1C8DE82100049120A81FA98E
S2140835B03B460390089A02910C9801F0DDFA119B9D
S2140835C00646672B40F0BA811BF0010F00F02382F5
S2140835D07419169A0898179B394604F063FE002853
S2140835E040F02481239BA34206D230215A1C239202
S2140835F01970239B9C42F9D89B1B13930E9B472B51
S21408360000F0A280119B652B40F3A781119B662BC7
S2140836101F9B129300F07181139B129A19469142D0
S21408362000F35D811BF0010F40F0F08122EAE2739F
S214083630089367230E921193109B002B7DD10A9353
S2140836409DF87770FFF714B924F0070423681593DC
S2140836506368149304F108030F93FFF72FBB0F9AC0
S214083660136804320F92099A1A60FFF704B8269B6B
S214083670AF4DFFF7ADB925AA0B990C9803F0D0FF0C
S21408368000287FF4AEA8C84631E40F9A13460433E0
S2140836900F93099B1168DD171A462B46C1E90023CC
S2140836A0FEF7E9BF25AA0B990C9803F0B9FF002886
S2140836B07FF497A8C846279C32E408F108082FE547
S2140836C040210C9802F0C0FE0B9A1060106100288A
S2140836D000F0148240230B9A5361FEF7BCBF032008
S2140836E00A9C23A98DE81100049120A81FA903901D
S2140836F0089A3B4602910C9801F03EFA2546064683
S214083700119B7419462B7FF464AF3378302B00F086
S21408371087811F9D2C445CE70A9B002B08BF01236A
S2140837200A9323E730460A95FEF750FF0F940E904B
S214083730CDF81CB00346FFF7E7B92D2700238DF810
S21408374077700A93FFF795B81F9B1A4612930333B0
S21408375004DB0A9B19469142BFF65EAF119B023BFB
S2140837601193129B9DF84420013B002B8DF8842072
S214083770B4BF2D222B221F93B8BF129B8DF885202D
S214083780B8BFC3F10103092B40F31F810DF1930065
S2140837900146684C00E0114684FB0352DD17C5EB72
S2140837A0A20505EB8502A3EB42023032092D01F88B
S2140837B0012C2B4601F1FF32EDDC30330239DCB246
S2140837C0884202F8014C40F292810DF186011346B8
S2140837D001E013F8014B834201F8014BF9D101339C
S2140837E09B1A0DF18602134421AA9B1A139A1B935F
S2140837F0012A13440E9340F348810E9B199A1344EA
S2140838000E9323EAE37308930023129314E7279C86
S214083810269AFFF776B825AA0B990C9803F000FFAE
S21408382000287EF4DEAFC846279CFBE42346E3E682
S21408383025AA0B990C9803F0F3FE00287EF4D1AF66
S214083840C8461F9A279CD3E525AA0B990C9803F01F
S214083850E7FE00287EF4C5AF1F9A139BC846279C30
S2140838609A1ADDE5269BFFF7FEB825AA0B990C9851
S21408387003F0D6FE00287EF4B4AFC846279CB0E511
S2140838800A9B3746062B28BF06230A9612960893E5
S2140838900F94CDF81CB00E93274EFEF7E9BF06230B
S2140838A00A9363E62D231F468DF87730FFF728BA6C
S2140838B003200A9C23A98DE81100049120A81FA9BB
S2140838C00390089A3B4602910C9801F055F9254654
S2140838D00646041919E7269B154DFFF77EBB199A6D
S2140838E0139B1344129A0E93002A40F3C78023EAC8
S2140838F0E3730893672311939EE6002B40F3E18059
S2140839000A9A002A40F0B0801BF0010F40F0AC8005
S21408391008930E9390E60A9B0F9408930E930A90CA
S214083920CDF81CB012909DF87770FEF7A1BF00BFC7
S214083930948A080067666666788A0800119B472B93
S2140839407FF446AE1BF0010F7FF4DAAE239B9B1B79
S21408395013930E9B472B3FF4F7AE1F9B129300E77B
S21408396000200A90FEF7BCBE4F42103135DA10240C
S2140839706A4DDDF830B004E008F10808103F102F53
S2140839802CDD01331032072B27922693C8F80050F7
S214083990C8F80440F0DD25AA0B99584603F040FE07
S2140839A000287EF41EAFC846279A269BE6E725AA77
S2140839B00B990C9803F034FE00287EF412AFC84624
S2140839C01F99279A269BFFF7C3BB302213448DF80E
S2140839D087308DF8862022AB06E7504D01333A44EF
S2140839E0072B88E8A0002792269308F108087FF797
S2140839F0B2AB25AA0B990C9803F012FE00287EF4A9
S214083A00F0AEC846279A269BFFF7A5BB129B199AC5
S214083A1013440E936BE7239BEEE5269B3F4DBBE4D2
S214083A20169A0898179B394604F03CFC00287FF441
S214083A3070AEC5F101051F952C44CAE5149B384E97
S214083A40002BBEBF2D231F468DF877304FF003039B
S214083A501A4608934FF00003A8BF9DF877701946DA
S214083A600A93304BFFF754B9129B199A13440A9AD3
S214083A701A4422EAE2730E920893DDE5129B0E9A28
S214083A80C3F101031A441346C3E71BF0010312935C
S214083A907FF4B3AE0E9B23EAE3730893CCE51F4D81
S214083AA03CE4269B1D4D91E40F9D9AF8013028684A
S214083AB0A24640EAE0700A90284604300F90FEF7C7
S214083AC00DBE0A9B13B91BF0010F02D0199B0133D8
S214083AD0CDE701231CE78DF87710FFF780B98DF83E
S214083AE07710FFF73AB98DF87710FFF74FB80DF152
S214083AF0860379E68DF87710FFF7B2B94FF0FF32F4
S214083B000C2309920C9A1360FEF774BE8DF8771092
S214083B10FFF7C4B88DF87710FFF778B8948A0800CE
S214083B204C8A0800488A08002DE9F84F4B6E9346E1
S214083B309C042FD59368126853B30E46074602F1C5
S214083B40080919E920045FEA9A0817D00024043DFA
S214083B5001E0A04510D0324655F8041F384602F05A
S214083B60C3F8431C04F10104F3D10023CBF8083052
S214083B70CBF80430BDE8F88FDBF808302AF0030AE3
S214083B80A3EB0A03CBF8083009F10809002BD8D1B3
S214083B900020EAE702F012FA0023CBF80830CBF848
S214083BA00430BDE8F88F00BF2DE9F04FADB01D46D4
S214083BB08B4690460793069018B1836B002B00F04F
S214083BC0F380DBF86430BBF90C00DF0781B202D45F
S214083BD08E0540F1FC808C040AD4DBF8643040F48F
S214083BE0005123F40053ABF80C10CBF8643089B2BC
S214083BF0080740F1B380DBF81030002B00F0AE80E9
S214083C0001F01A030A2B00F0B58000230DF1700AA4
S214083C10D1460B93039311931093CDF83CA0CDF89F
S214083C2010B098F800304446FBB1252B02D11CE0B2
S214083C30252B03D014F8013F002BF9D1A4EB080577
S214083C409DB1109B119A01332A44072BC9F80080AE
S214083C50C9F80450119210937ADD002A40F0B58412
S214083C60D146039B10922B4403932378002B00F035
S214083C70E58300204FF0000304F101088DF8373083
S214083C8062780646054603464FF0FF3408F10108F9
S214083C90A2F12001582900F2D982DFE811F02802A3
S214083CA0D702D7023002D702D702D702D702D702E6
S214083CB0D702A0008802D702A800B802D702A60139
S214083CC0AB01AB01AB01AB01AB01AB01AB01AB0187
S214083CD0AB01D702D702D702D702D702D702D7023C
S214083CE0D702D702D702B901D702D702D702D7021E
S214083CF0D702D702D702D702D702D7029E01D70229
S214083D00D702D702D702D702A201D702D7025A0291
S214083D10D702D702D702D702D702D702D702D702CE
S214083D20D702D70261022202D702D702D70276024A
S214083D302202D702D7027B02D702FC0189011002B1
S214083D40D202D7029502D702AD00D702D7023502B3
S214083D5009F10809039B2B44039386E759460698FE
S214083D6000F002FE18BBBBF80C1001F01A030A2B71
S214083D707FF44BAFBBF90E30002BFFF646AFDBF8EF
S214083D806430DB0705D48F0503D4DBF8580002F04F
S214083D90D9FA2B4642465946069800F049FD039044
S214083DA003982DB0BDE8F08F01F0FCFE09E7DBF8BC
S214083DB06430D90704D4BBF80C309A0540F1AE84B9
S214083DC04FF0FF33039303982DB0BDE8F08FDBF870
S214083DD0580002F0B5FABBF90C0081B2FBE6079969
S214083DE00A460D680432002D079202DA6D4243F047
S214083DF0040398F8002049E708959E0600F15A84BF
S214083E000799DD060A4600F1EF83580640F1EC8371
S214083E10002701220E88043107914FF00001002583
S214083E208DF83710611C00F0178123F0800102918D
S214083E3056EA070140F01581002C40F05B83002A03
S214083E4040F0B68313F00103059300F05584302341
S214083E500DF1B00B0BF8413D059BA342B8BF2346B6
S214083E6001930DB101330193029B13F002030993EA
S214083E7002D0019B02330193029B13F084030A933A
S214083E8040F01582089B019A9D1A002D40F30F8278
S214083E90102D40F38484109BCE461027A146119A15
S214083EA0C54E1946069C07E001F1020C01460EF1C4
S214083EB0080E103D102D11DD481C103207281192EF
S214083EC08EE8C0001090EFDD002A40F0D981103D42
S214083ED0102D11464FF0010CD646EDDC4C466146D7
S214083EE0F1462A4407291192C9F80060C9F8045017
S214083EF0109100F3EB829DF8375009F10809481C29
S214083F00002D40F0DC81099B002B00F0F681022191
S214083F100EAB0A44072811921090C9F80410C9F885
S214083F20003040F3E681002A40F095830A9B012082
S214083F30802B1146D14640F0E481089B019D5E1B0C
S214083F40002E40F3DE81102E40F33C84CC4610272A
S214083F50A1469A4D069C07E001F1020E01460CF1B7
S214083F60080C103E102E11DD481C1032072811923E
S214083F708CE8A0001090EFDD002A40F09B82103EEF
S214083F80102E4FF0010E1146D446EDDC4C46E146A5
S214083F903244BEF1070F119289E86000CDF840E080
S214083FA000F3668309F108090EF101007146A8E1DD
S214083FB0089513F0200240F0898313F0100140F0B2
S214083FC0198313F0400200F0158307980A46014645
S214083FD004310688002707911FE7089543F0100369
S214083FE0E7E7089543F0100307E743F0800398F8DF
S214083FF000204BE60025A2F1300118F8012B05EB4E
S214084000850501EB4505A2F130010929F5D93FE6FA
S2140840100895002840F0028443F010039E0600F13D
S2140840203D830799DD060A4600F1F082580640F1FE
S214084030ED82B1F900600432F71730463946079228
S214084040002871F10002C0F25A83611C9DF83750AF
S2140840504FF001027FF4E9AE56EA070100F04B8202
S2140840600293012A00F08A82022A40F05A82D34636
S2140840700B98330943EA0773390906F00F020F460F
S2140840801E46835C0BF8013D56EA0703F1D1AAEBFE
S2140840900B030593E0E6002840F0BD83990600F17F
S2140840A05983DA0600F1E5805B0640F1E280079A5C
S2140840B0136804320792BDF80C201A80B1E57822FE
S2140840C030210895079D8DF839202A1D07923C4A0D
S2140840D02E680B9243F002038DF838100027022250
S2140840E09BE60895002899D08DF8376096E798F8EB
S2140840F00020002E7FF4CAAD01202026C6E543F036
S214084100010398F80020C1E50895002840F0808350
S2140841102B490B919F0600F1E5820798DE060146BB
S21408412000F16F825D0640F16C8200270431068834
S2140841300791D80740F1208256EA070100F01C8252
S21408414030218DF8392043F002038DF8381002220A
S21408415063E60895002840F055831A490B91D9E77D
S214084160012207981146019202684FF000048DF864
S21408417048200246043208958DF837400591079284
S2140841800DF1480B029300246EE643F0400398F8BE
S21408419000207BE598F800206C2A03BF98F80120D9
S2140841A043F0200308F1010843F010036EE598F881
S2140841B0002001202B2669E5A48A0800B48A080096
S2140841C0648A0800508A08004FF00002079908958C
S2140841D0D1F800B08DF837200D1DBBF1000F00F0A8
S2140841E0E482671C00F0C3822246002158460193E9
S2140841F002F0E2FB019B002800F0E882A0EB0B022D
S2140842000795059202939DF83750002424E698F8FF
S214084210002008F101072A2A00F0E982A2F13001FD
S2140842200929B8464FF000043FF632AD18F8012BBE
S21408423004EB840401EB4404A2F130010929F5D902
S21408424026E543F0200398F800201FE50895002887
S21408425040F0DB82002A00F0F18001218DF848202A
S2140842604FF0000201918DF8372005910DF1480BAB
S21408427088E7079A136804320792039A1A60D0E40C
S2140842800FAA04992046FFF74FFC002840F0438108
S2140842901099D646119A01F1010C0AE60FAA04995C
S2140842A00698FFF741FC002840F03581D146109962
S2140842B09DF83750119A481C002D3FF424AE012172
S2140842C00DF137050A44072811921090C9F8041012
S2140842D0C9F8005040F30981002A40F0AF81099BD5
S2140842E0002B3FF423AE02220846D1460EAB1D92A1
S2140842F01C93014609F1080901300A9B802B3FF4FC
S2140843001CAE059BE41A002C2FDD102C40F32082EF
S214084310CE461026B24D069FDDF8109006E0881CA3
S21408432019460EF1080E103C102C10DD4B1C1032EE
S214084330072B11928EE860001093F0DD002A65D1F5
S214084340103C102C4FF001001146D646EEDCF14624
S214084350224407281192C9F80050C9F80440109062
S21408436000F3858009F108090130059907280A44F1
S2140843701192C9F800B0C9F80410109040F3828072
S214084380002A40F01881029B1092580735D5089BE2
S21408439001995C1A002C40F3E780D146102C40F3B4
S2140843A00D82102510998F4E069FDDF810B006E096
S2140843B0881C194609F10809103C102C11DD4B1C05
S2140843C01032072B1192C9F80060C9F804501093F0
S2140843D0EEDD42BB103C102C4FF001001146D146D2
S2140843E0EDDC224407281192C9F80060C9F8044099
S2140843F0109051DD002A40F09A81039B089A019993
S2140844008A42ACBF9B185B1803934EE00FAA494636
S2140844103846FFF789FB002840F03E811099D646BB
S214084420119A481C7FE70FAA59463846FFF77CFBC7
S21408443060B91099D146119A481CBDE7119BDDF862
S21408444010B0002B40F0CA8100231093DBF86430CC
S21408445013F0010FBBF80C3002D19A0540F1DD804D
S2140844605B063FF5ADAC03982DB0BDE8F08F002A8B
S21408447040F005810123D146059ACDF870B01D920B
S2140844801192109309F10809029B590704D5089B55
S21408449001995C1A002C81DC039B089901988142DB
S2140844A0ACBF5B181B18039372BB0023D14610934E
S2140844B0FFF7B7BB0FAA04992046FFF735FB50BB9A
S2140844C01099D446119A01F1010E4AE5002A7FF4A4
S2140844D0E5AE9DF83710002900F01A810122D14672
S2140844E010460DF137011D921C91014609F1080985
S2140844F0013008E5029B012A00F09780022A0DD1B8
S214084500029300260027B2E50FAA04990698FFF73B
S2140845100BFB0028C9D0DDF810B097E70026002767
S2140845200293514600E05946F20842EA4772F808F4
S21408453006F0070307461646303356EA070201F820
S214084540013C01F1FF3BEED1029AD6077FF59FADFD
S214084550302B3FF49CAD302302390BF8013CAAEB14
S214084560010305938B4677E4039B089A8A42ACBFFF
S2140845709B185B18039398E702224EE4002F08BFA7
S2140845800A2E51D3D346304639460A22002303F072
S214084590F9FE30320BF8012D3046394600230A2240
S2140845A003F0F0FE06460F4656EA0703EBD16EE523
S2140845B00594D34650E40FAA04990698FFF7B4FA70
S2140845C00028A8D1D146119A5EE70FAA0499069842
S2140845D0FFF7AAFA00289ED1D146FFF7BBBB00BF5B
S2140845E0B48A0800A48A0800043116680027012245
S2140845F0079112E4079800270146043106680791D8
S2140846000BE40E6804310791002792E51668043219
S214084610F71707923046394612E5DBF8580001F0DE
S21408462091FEBBF80C301BE7029B029301230DF1A9
S214084630B00B30360BF8416D05930DE40FAA0499BC
S2140846400698FFF771FA00287FF465AF1099D146EF
S214084650119A481C57E40FAA04990698FFF764FABB
S21408466000287FF458AF1099D146119A481C44E6A2
S214084670002A40F0878001201146D14641E60FAA5D
S21408468004990698FFF750FA00287FF444AF10986C
S214084690D146119A013068E6CB46D7E6079D07351E
S2140846A025F0070505F10802D5E900010792064638
S2140846B00F46C5E4079D073525F0070202F10801F5
S2140846C0D2E9006707910122FFF7A7BB079D0735C8
S2140846D025F0070202F10801D2E9006707910022D7
S2140846E0FFF79BBB079D073525F0070101F108007A
S2140846F00790D1E900671CE5D346FFF7ADBB2D252B
S214084700764267EB47078DF837500122FFF78ABBDA
S214084710099BB3B911460120D146F2E5DBF85800EB
S21408472001F010FE4FF0FF330393FFF74CBB0FAAC0
S21408473004990698FFF7F8F900287FF4ECAE119A6A
S214084740AAE602220EAB1D921C930120D146D0E5A4
S214084750344DFDE5079A134604330793039B116807
S214084760DD171A462B46C1E90023FFF75ABA584602
S21408477007950293FDF72AFF002405909DF8375009
S214084780FFF76ABB0FAA04990698FFF7CDF9002829
S2140847907FF4C1AE1099D146119A481CB1E510991C
S2140847A0119A0131204EFFF79CBB062C28BF062421
S2140847B0079505940194DFF874B0E3E410981A4E50
S2140847C001300EE68646174DFFF7E2BB05940795BF
S2140847D0029304469DF83750FFF73EBB06980FAA8B
S2140847E05946FFF7A1F900283FF42EAE2EE60799A2
S2140847F098F801200C68043144EAE474B846079136
S214084800FFF744BA8DF83760A7E48DF8376021E5DE
S2140848108DF837607CE48DF837603FE48DF83760B4
S214084820FFF7FABBB48A0800A48A0800788A08004A
S2140848302DE9F0410C464FF0000E4FF48065064611
S21408484017469846626EE3898989ADF58D6D21F025
S21408485002011992ADF80E30E269636AADF80C10E1
S21408486016A81AA9CDF818E00792099300910491A2
S2140848700295059501F060FD43463A46694630467E
S214084880FFF792F9051E07DB3046694601F032F954
S214084890002818BF4FF0FF35BDF80C305B0603D56F
S2140848A0A38943F04003A381169801F047FD2846E4
S2140848B00DF58D6DBDE8F081F8B50D461446064633
S2140848C010B1836B002B4BD0B4F90C20A36991B2BE
S2140848D00807A36039D52369002B36D0EDB28904C2
S2140848E02F4615D522686169D31A8B421CDA013324
S2140848F0A168501C0139A1602060157062699A424F
S2140849001AD0A389DB0701D50A2D15D03846F8BD7D
S214084910616E42F4005221F40051A2812268616659
S2140849206169D31A8B42E2DB2146304601F0E2F891
S21408493040B901232268DBE72146304601F0DAF861
S2140849400028E3D04FF0FF37E0E72146304600F076
S2140849500BF80028F6D1B4F90C20236991B2BDE70C
S21408496001F020F9B0E700BF38B5304B05461868A7
S2140849700C4610B1836B002B38D0B4F90C2093B2D8
S21408498018070CD52069A8B113F001021ED0002222
S2140849906369A2605B42A361F0B1002038BDD90606
S2140849A03BD5580725D4206942F00803A3819BB25B
S2140849B00028E9D103F42072B2F5007FE4D0284637
S2140849C0214601F0EFFCA3892069DDE7990758BF67
S2140849D06269A2600028E0D1B4F90C301A06DDD569
S2140849E043F04003A3814FF0FF3038BD01F0DAF8FA
S2140849F0C3E7216B51B104F14003994204D028461D
S214084A0001F0F6F9B4F90C2000232363002320698B
S214084A1022F0240284E80900C6E7092342F040028F
S214084A202B604FF0FF30A28138BD00BF340107204D
S214084A30024B13B1024800F005B8704700000000AA
S214084A401D5C0800002301461A46184602F0B2BE4E
S214084A502DE9F04F03690F6983B09F4200F3888001
S214084A60013F01F1140600F1140A56F827305AF8E7
S214084A7027200133B2FBF3F8BB00009306EB0309CB
S214084A8053440193B8F1000F3BD00023B4461C46AC
S214084A90D6465CF8042BDEF800501FFA82FB08FBAB
S214084AA00B33120C4FEA134B08FB02BB9AB2A21A3E
S214084AB0ABB21FFA8BF41A44C4EB154404EB224439
S214084AC092B242EA0442E1454EF8042B4FEA2444E7
S214084AD04FEA1B43DDD2009B5AF803308BB9019C82
S214084AE0231F9A450CD254F8043C4BB9A4F108038A
S214084AF002E01A68043B1AB99A4507F1FF37F8D35B
S214084B000761044602F082FA00282DDB554600238A
S214084B1008F1010856F8041B28688AB29A1A0B0C82
S214084B2081B20A44C3EB104303EB224392B242EA33
S214084B300342B14545F8042B4FEA2343EAD25AF814
S214084B4027200AEB87037AB91A1F92450BD253F827
S214084B50042C42B9083B02E01A68043B1AB99A4585
S214084B6007F1FF37F8D32761404603B0BDE8F08F5A
S214084B70002003B0BDE8F08F2DE9F04F056C9BB020
S214084B80044692469B46279E4DB10123426C294611
S214084B909340AB606A6002F061F800232364BBF1BF
S214084BA0000F5D4635DB002333609D4BAB4315D0C5
S214084BB0002200235046594603F074FB804600281E
S214084BC02DD00123269A1360289B002B00F0BD8069
S214084BD09448186001381BB0BDE8F08F42F20F7396
S214084BE0269A1360BAF1000F0DD1C5F3130555B90F
S214084BF0289B8D48002BEED000F10803289A1360F6
S214084C001BB0BDE8F08F289B8848002BE3D0C31C58
S214084C10F4E701232BF000453360AB46C5E718AA36
S214084C2019AB0192009352465B46204602F098FA6A
S214084C302B0D814671D05046CBF3130242F07F51BC
S214084C40189FA3F2FF36CDF8508041F44011002299
S214084C50774B02F00BFF6CA3D3E9002303F0BAF8F6
S214084C606BA3D3E9002302F003FFCDE90201304627
S214084C7003F04AF868A3D3E9002303F0ABF802462A
S214084C800B46DDE9020102F0F3FECDE9040103F06C
S214084C9051FB002202900023DDE9040103F00CFB1F
S214084CA0002840F06D81029D162D00F2578161495B
S214084CB0524601EBC5015B46D1E9000103F01AFB39
S214084CC0002800F0BE816B1E029300230E93BF1BC4
S214084CD07B1E089300F14E8100230A93029B002B4B
S214084CE0C0F23F81089A0D93114619440023089193
S214084CF00C93249B092B2AD8052B40F358860025AD
S214084D00043B2493249B023B032B00F23F86DFE8F8
S214084D1013F0CE03C302D9035B04189F199E3E44C2
S214084D2006F23243202B40F38781C3F1400306F294
S214084D3012409D402AFA00F0284302F0D5FF0123CE
S214084D40013E1493A1F1F87181E73B4843E700213F
S214084D5020466164259101F05BFF4FF0FF3307930F
S214084D600F930123259A0490206424920B93199B91
S214084D70002BC0F2D380029A0E2A00F3CF802D4B68
S214084D8003EBC203D3E90023CDE90823259B002BB8
S214084D90C0F2B483DDE9085650462A4633465946DB
S214084DA003F042F903F0C6FA804602F0ADFF2A4641
S214084DB0334603F00FF802460B465046594602F0B3
S214084DC055FE079E049F08F13005012E3D700246E9
S214084DD00B4607F1010564D00022184B02F0FAFFD3
S214084DE00022002306460F4603F05CFA002840F02F
S214084DF08280CDF828904FF0000ADDE908894FF048
S214084E00000B0B9429E000BF61436F63A787D23F6E
S214084E10B3C8608B288AC63FFB799F501344D33F9C
S214084E200000F07F818A0800C48A0800D08A08003B
S214084E300000F83F108B0800808A08000000244015
S214084E400022814B02F0C6FF52465B4606460F46D6
S214084E5003F028FA002840F0BA8342464B4630460C
S214084E60394603F0E1F803F065FA044602F04CFF11
S214084E7042464B4602F0AEFF02460B4630463946DF
S214084E8002F0F4FD04F1300605F8016B049E079F56
S214084E90AE1BBE4202460B46D2D1A046DDF828908D
S214084EA00B9C1046194602F0E3FD06460F460246DE
S214084EB00B46DDE9080103F0FFF948B9DDE908010A
S214084EC032463B4603F0EEF9A8B118F0010F12D0AF
S214084ED015F8018C6B1E049A04E09A4200F00284CE
S214084EE013F8018DB8F1390F03F10105F5D008F173
S214084EF0010883F800804946204601F0AFFE0022EC
S214084F00029B2A70269A01331360289B002B00F018
S214084F109F8304981D601BB0BDE8F08F0B9A002A8B
S214084F203ED0249A012A40F31183079B0C9A5F1EF1
S214084F30BA42C0F29083D71B079B002BC0F28C8422
S214084F400A9D079B0A9A01211A440A92089A204643
S214084F501A44089201F01EFF064623E001230E932A
S214084F60B5E600230A9A0D93029BD21A5B420A9270
S214084F700C93BEE6C7F101030A9300230893ADE637
S214084F80029D284602F0C0FE02460B46DDE90401F3
S214084F9003F088F900287FF486AE6B1E029382E63B
S214084FA00AADE0CD002D0CDD089900290B4608DD7A
S214084FB0A942A8BF2B460A9AED1AD21ACB1A0A9209
S214084FC008930C9BD3B10B9B002B00F0B882002FE4
S214084FD010DD31463A46204601F078FF4A4601463B
S214084FE00646204601F0E0FE034649462046994616
S214084FF001F034FE0C9BDA1B40F0A2820121204609
S21408500001F0C8FE0D9B8046002B1FDD01461A46A0
S214085010204601F05BFF249B8046012B40F3558217
S21408502000230C93D8F8103008EB8303186901F0B6
S21408503061FEC0F1200013E0C3F120050AFA05F06E
S2140850407BE60E9043E600BF00002440249B012B1D
S21408505040F3858200230C930D9B0120002BE1D1A1
S214085060089A104410F01F0000F0A180C0F1200339
S214085070042B40F386840A9BC0F11C0003440A9361
S21408508013460344054408930A9B002B05DD49464E
S2140850901A46204601F06AFF8146089B002B05DD6C
S2140850A041461A46204601F061FF80460E9B002BBB
S2140850B040F08680079B002B40F364820B9B002BF6
S2140850C000F09880002D05DD31462A46204601F07E
S2140850D04DFF06460C9B002B40F036830896079B30
S2140850E0049A013BD3180B9317460AF00103C246ED
S2140850F0DDF820B00C9351464846FFF7A9FC314628
S2140851000546484601F082FF5A4607905146204613
S21408511001F098FFC268804605F13003002A40F087
S2140851202982014648460A9301F070FF41460890D6
S214085130204601F093FD089A0A9B32B9249921B9B2
S2140851400C9A002A00F0EE83249A07990029C0F2E8
S2140851509F8205D1249919B90C99002900F09882E4
S214085160002A00F305830B9A07F1010897423B7063
S214085170454600F00B83494600230A22204601F0E4
S21408518077FD5E45814631464FF000034FF00A0230
S214085190204600F0E98101F06BFD594606460023DB
S2140851A00A22204601F064FD47468346A3E71C20F2
S2140851B00A9B054403440A93089B0344089363E741
S2140851C04146484601F022FF0028BFF673AF029F0B
S2140851D0494600230A222046013F029701F048FD6F
S2140851E00B9B8146002B40F0B5830F9B002B40F3AA
S2140851F0BE830793DDF810A0079F554606E049468C
S21408520000230A22204601F033FD814641464846DF
S214085210FFF71EFC303005F8010BA5EB0A03BB426E
S214085220EDDB049B079A8246012AACBF9B18013324
S2140852304FF0000B1D4649460122204601F096FE17
S2140852404146814601F0E2FE002840F33F8215F809
S214085250012C6B1E049904E08B4200F0AE8113F813
S214085260012D392A03F10105F6D001321A7041469C
S214085270204601F0F3FC002E3FF43DAEBBF1000FD4
S21408528005D0B34503D05946204601F0E7FC314621
S214085290204601F0E3FC2EE600230B93029B259A9A
S2140852A013440F930133012B1F461E46B8BF012730
S2140852B007930021172F61640AD9012204235B0093
S2140852C003F114008742114602F10102F7D2616425
S2140852D0204601F09DFC0E2E049020643FF647AD54
S2140852E0002D3FF444AD0299CDE910AB002940F3F8
S2140852F00382B94B01F00F020D1103EBC203E90656
S214085300D3E9006740F1AF81B44B5046D3E9082390
S214085310594602F089FE4FF0030ACDE9120105F05E
S2140853200F058DB1DFF8B482EA0709D5D8E900235E
S2140853303046394602F04EFD06460F460AF1010A87
S2140853406D1008F10808EFD13B46DDE91201324638
S21408535002F06AFE074688460E9B43B10022A04B21
S2140853603846414602F0A8FF002840F0878250469B
S21408537002F0CAFC3A46434602F02CFD994B00223E
S21408538002F076FB079B0546A1F15076002B00F04D
S2140853903F81029B1593079B12930B9B002B00F0F3
S2140853A0FB81129A8C4B002003EBC20353E90223BD
S2140853B08D4902F039FE2A46334602F057FB8246EC
S2140853C08B463846414602F0B5FF054602F09CFC7F
S2140853D002460B463846414602F048FB30355FFA2F
S2140853E085F8049D06460F4685F8008002460B465B
S2140853F050465946013502F07DFF002854D1324602
S2140854003B460020764902F031FB02460B465046E2
S214085410594602F06FFF002840F07082129A012A5F
S21408542000F01281129B049ACDF8489013449946CE
S2140854300FE032463B460020694902F017FB524609
S2140854405B4602F039FF002840F056824D4500F0D2
S214085450F980504659460022644B02F0BBFC0022F5
S214085460624B82468B463046394602F0B3FC0F46FE
S214085470064602F05FFF804602F046FC02460B46F0
S2140854803046394602F0F2FA08F130085FFA88F832
S21408549005F8018B52465B4606460F4602F00CFF9F
S2140854A00028C6D0DDF84890159B029323E5002314
S2140854B00B93259B002B40F3DD801F461E460F935B
S2140854C00793F6E601230B93F3E7BAF1000F7FF490
S2140854D0A7ADCBF31303002B7FF4BCAD2BF000472E
S2140854E03F0D3F05002F00F00D820A9B01330A93FB
S2140854F0089B0133089301230C93ADE5079B002B0B
S2140855003FF748AC40F02282DDE908010022384B1C
S21408551002F060FC52465B4602F0E2FEDDF81C80B4
S2140855204646002841D0259B049DDB43029341460E
S214085530204601F093FB002E3FF4DDACA7E60C9A5C
S2140855404946204601F0C2FC814657E5149A002ACF
S21408555000F0888103F233430C9F0A9DF2E4BAF107
S214085560000F7FF477ADB4E701F082FB47460646A6
S2140855708346C0E501462046089301F06FFB0122EA
S214085580089BE2E5249B022B7FF798AD079B002B30
S214085590C9D141460522204601F06AFB01468046ED
S2140855A0484601F033FD0028BDDD3123029A0499F0
S2140855B0013202920B704D1CB9E73123029A013270
S2140855C00292049A137052E601230B9366E6DDF8FE
S2140855D028900B9C8FE400BF108B0800E88A080010
S2140855E00000F03F00001C400000E03F00002440A0
S2140855F000001440504602F087FB3A46434602F045
S214085600E9FB0022C14B02F033FA0546A1F15076B9
S21408561041460022BE4B384602F028FA2A46334650
S21408562082468B4602F066FE8046002840F01081CF
S2140856302A4606F100435046594602F03DFE18B188
S214085640464670E7DDF84890DDE910ABFFF78FBBFC
S2140856500498FFF7C0BA0C9B0D9AFB1A1A440C97CD
S2140856600D92002768E4DDE910234FF0020ACDE921
S214085670122356E60021012320466164259301F093
S214085680C7FA259B04900793259B20640F9327E66B
S214085690002AD046CDF820B09A4611DD49460122A8
S2140856A0204601F063FC4146814601F0AFFC002825
S2140856B040F34581BAF1390F00F0058105F1310A4A
S2140856C0B34687F800A07D1C089ED0E504D11AF0E2
S2140856D0010F01D0BBE5154615F8013C6A1E302BB4
S2140856E0F9D0C4E5302204990A70029A15F8018C9C
S2140856F001320292FFF7FBBB00F0BB80DDE9100128
S214085700029B4FF0020A5D42824B05F00F0203EB44
S214085710C203D3E9002302F05DFB2D110746884635
S2140857203FF41AAE7C4EEB0709D5D6E90023384677
S214085730414602F04FFB074688460AF1010A6D10FB
S21408574006F10806EFD107E67168204601F060FA10
S2140857500546336906F10C0102339A000C3001F055
S21408576071F929460122204601F000FC0890B6E4AB
S214085770392BCDF820B0D04600F0A58003F1010AF9
S214085780B34687F800A07D1C089E70E55A46D046AA
S214085790B3469A4616464EE512985E492A4601EBE7
S2140857A0C001334651E9020102F014FBCDE91601A7
S2140857B03846414602F0BEFD054602F0A5FA024606
S2140857C00B463846414602F051F906461298049AA6
S2140857D03035012815700F4602F1010526D0129BB8
S2140857E0049ACDF8489013444FF0000A9946DFF81B
S2140857F030B152465B463046394602F0EBFA0F4661
S214085800064602F097FD804602F07EFA02460B46F0
S2140858103046394602F02AF908F1300805F8018BB7
S2140858204D4506460F46E4D1DDF848900022DDE9EE
S21408583016013A4B02F01CF932463B4602F03CFD94
S214085840002846D0159B029315F8018CFFF742BB3B
S2140858504FF000084646A8E60A9B079A9D1A0023BA
S214085860FFF770BB189B0C9FC3F136030A9DFFF722
S21408587069BBDDE910784FF0020A6DE5079B002B3F
S2140858803FF4B8AE0F9B002B7FF7DEAE0022244B0A
S2140858903846414602F09EFA074688460AF1010055
S2140858A002F032FA3A46434602F094FA0022174BC0
S2140858B002F0DEF8029A0F9B013A05461592A1F10E
S2140858C05076129369E53922B3463A70089E7D1CD5
